{
  "contractName": "MiningEquityDistributor",
  "abi": [
    {
      "constant": false,
      "inputs": [],
      "name": "terminateContract",
      "outputs": [],
      "payable": false,
      "stateMutability": "nonpayable",
      "type": "function"
    },
    {
      "constant": true,
      "inputs": [],
      "name": "getContractBalance",
      "outputs": [
        {
          "name": "",
          "type": "uint256"
        }
      ],
      "payable": false,
      "stateMutability": "view",
      "type": "function"
    },
    {
      "constant": false,
      "inputs": [],
      "name": "withdrawContractBalance",
      "outputs": [],
      "payable": false,
      "stateMutability": "nonpayable",
      "type": "function"
    },
    {
      "constant": true,
      "inputs": [],
      "name": "MiningOperation",
      "outputs": [],
      "payable": false,
      "stateMutability": "pure",
      "type": "function"
    },
    {
      "payable": true,
      "stateMutability": "payable",
      "type": "fallback"
    }
  ],
  "bytecode": "0x6060604052341561000f57600080fd5b6103ec8061001e6000396000f300606060405260043610610062576000357c0100000000000000000000000000000000000000000000000000000000900463ffffffff1680632fd949ca146100645780636f9fb98a14610079578063bfab3db9146100a2578063c1da9388146100b7575b005b341561006f57600080fd5b6100776100cc565b005b341561008457600080fd5b61008c610191565b6040518082815260200191505060405180910390f35b34156100ad57600080fd5b6100b5610248565b005b34156100c257600080fd5b6100ca6103be565b005b738e3c250afc162ec973b8190238f20f3d69f291f973ffffffffffffffffffffffffffffffffffffffff163373ffffffffffffffffffffffffffffffffffffffff161480610159575073dae2ac6792d6d9acb3d05823c23625cb91b74c7973ffffffffffffffffffffffffffffffffffffffff163373ffffffffffffffffffffffffffffffffffffffff16145b151561016457600080fd5b738e3c250afc162ec973b8190238f20f3d69f291f973ffffffffffffffffffffffffffffffffffffffff16ff5b6000738e3c250afc162ec973b8190238f20f3d69f291f973ffffffffffffffffffffffffffffffffffffffff163373ffffffffffffffffffffffffffffffffffffffff161480610220575073dae2ac6792d6d9acb3d05823c23625cb91b74c7973ffffffffffffffffffffffffffffffffffffffff163373ffffffffffffffffffffffffffffffffffffffff16145b151561022b57600080fd5b3073ffffffffffffffffffffffffffffffffffffffff1631905090565b6000738e3c250afc162ec973b8190238f20f3d69f291f973ffffffffffffffffffffffffffffffffffffffff163373ffffffffffffffffffffffffffffffffffffffff1614806102d7575073dae2ac6792d6d9acb3d05823c23625cb91b74c7973ffffffffffffffffffffffffffffffffffffffff163373ffffffffffffffffffffffffffffffffffffffff16145b15156102e257600080fd5b60023073ffffffffffffffffffffffffffffffffffffffff163181151561030557fe5b0490506000811415156103bb57738e3c250afc162ec973b8190238f20f3d69f291f973ffffffffffffffffffffffffffffffffffffffff166108fc829081150290604051600060405180830381858888f19350505050151561036657600080fd5b73dae2ac6792d6d9acb3d05823c23625cb91b74c7973ffffffffffffffffffffffffffffffffffffffff166108fc829081150290604051600060405180830381858888f1935050505015156103ba57600080fd5b5b50565b5600a165627a7a72305820f1a5518d1deae24448af5e8f941801dfe247585a11c6f408f6effbf8c97c56c60029",
  "source": "pragma solidity ^0.4.11;\n\ncontract MiningEquityDistributor {\n  // Owners of the mining operation.\n  address constant juan = 0x8E3c250aFC162Ec973B8190238F20F3D69f291f9;\n  address constant rafael = 0xDaE2aC6792D6D9aCb3D05823C23625cb91b74c79;\n\n  function MiningOperation() public pure {\n  }\n\n  function getContractBalance() public view returns (uint) {\n    require(msg.sender == juan || msg.sender == rafael);\n    return this.balance;\n  }\n\n  function withdrawContractBalance() public {\n    require(msg.sender == juan || msg.sender == rafael);\n    uint rebalanceAmount = this.balance/2;\n    if (rebalanceAmount != 0) {\n        juan.transfer(rebalanceAmount);\n        rafael.transfer(rebalanceAmount);\n    }\n  }\n\n  function() payable { }\n\n  function terminateContract() public {\n    require(msg.sender == juan || msg.sender == rafael);\n    selfdestruct(juan);\n  }\n}\n",
  "sourcePath": "/Users/rafael/sandboxes/solidity/mining_contract/contracts/MiningEquityDistributor.sol",
  "compiler": {
    "name": "solc",
    "version": "0.4.18+commit.9cf6e910.Emscripten.clang"
  },
  "schemaVersion": "1.0.1",
  "updatedAt": "2017-11-30T03:48:21.966Z"
}