{
  "contractName": "MiningEquityDistributorV2",
  "abi": [
    {
      "payable": false,
      "stateMutability": "nonpayable",
      "type": "function",
      "constant": false,
      "inputs": [
        {
          "name": "expenseAmount",
          "type": "uint256"
        }
      ],
      "name": "reportExpense",
      "outputs": []
    },
    {
      "constant": false,
      "inputs": [],
      "name": "withdrawContractBalance",
      "outputs": [],
      "payable": true,
      "stateMutability": "payable",
      "type": "function"
    },
    {
      "constant": false,
      "inputs": [
        {
          "name": "newOwners",
          "type": "address[]"
        },
        {
          "name": "ownershipFactor",
          "type": "uint256[]"
        }
      ],
      "name": "MiningOperation",
      "outputs": [],
      "payable": false,
      "stateMutability": "nonpayable",
      "type": "function"
    },
    {
      "payable": true,
      "stateMutability": "payable",
      "type": "fallback"
    }
  ],
  "bytecode": "0x6060604052341561000f57600080fd5b6106e48061001e6000396000f300606060405260043610610057576000357c0100000000000000000000000000000000000000000000000000000000900463ffffffff16806330204e8014610059578063bfab3db91461007c578063cd11647414610086575b005b341561006457600080fd5b61007a6004808035906020019091905050610120565b005b610084610211565b005b341561009157600080fd5b61011e6004808035906020019082018035906020019080806020026020016040519081016040528093929190818152602001838360200280828437820191505050505050919080359060200190820180359060200190808060200260200160405190810160405280939291908181526020018383602002808284378201915050505050509190505061039f565b005b600061012a6104a8565b151561013557600080fd5b61013d610550565b821115151561014b57600080fd5b600090505b60008054905081101561020d573373ffffffffffffffffffffffffffffffffffffffff1660008281548110151561018357fe5b906000526020600020906003020160000160009054906101000a900473ffffffffffffffffffffffffffffffffffffffff1673ffffffffffffffffffffffffffffffffffffffff16141561020057816000828154811015156101e157fe5b9060005260206000209060030201600201600082825401925050819055505b8080600101915050610150565b5050565b600080600061021e6104a8565b151561022957600080fd5b600160009054906101000a900460ff16151561024457600080fd5b6000600160006101000a81548160ff021916908315150217905550610267610550565b9250600091505b6000805490508210156103805760008281548110151561028a57fe5b90600052602060002090600302016002015490506000828154811015156102ad57fe5b906000526020600020906003020160010154838115156102c957fe5b0481019050600080838154811015156102de57fe5b90600052602060002090600302016002018190555060008281548110151561030257fe5b906000526020600020906003020160000160009054906101000a900473ffffffffffffffffffffffffffffffffffffffff1673ffffffffffffffffffffffffffffffffffffffff166108fc829081150290604051600060405180830381858888f19350505050151561037357600080fd5b818060010192505061026e565b60018060006101000a81548160ff021916908315150217905550505050565b60008090505b82518110156104a357600080548060010182816103c29190610630565b9160005260206000209060030201600060606040519081016040528087868151811015156103ec57fe5b9060200190602002015173ffffffffffffffffffffffffffffffffffffffff168152602001868681518110151561041f57fe5b9060200190602002015181526020016000815250909190915060008201518160000160006101000a81548173ffffffffffffffffffffffffffffffffffffffff021916908373ffffffffffffffffffffffffffffffffffffffff160217905550602082015181600101556040820151816002015550505080806001019150506103a5565b505050565b600080600090505b600080549050811015610547573373ffffffffffffffffffffffffffffffffffffffff166000828154811015156104e357fe5b906000526020600020906003020160000160009054906101000a900473ffffffffffffffffffffffffffffffffffffffff1673ffffffffffffffffffffffffffffffffffffffff16141561053a576001915061054c565b80806001019150506104b0565b600091505b5090565b60008060003073ffffffffffffffffffffffffffffffffffffffff16319150600090505b600080549050811015610628573373ffffffffffffffffffffffffffffffffffffffff166000828154811015156105a757fe5b906000526020600020906003020160000160009054906101000a900473ffffffffffffffffffffffffffffffffffffffff1673ffffffffffffffffffffffffffffffffffffffff16141561061b5760008181548110151561060457fe5b906000526020600020906003020160020154820391505b8080600101915050610574565b819250505090565b81548183558181151161065d5760030281600302836000526020600020918201910161065c9190610662565b5b505050565b6106b591905b808211156106b157600080820160006101000a81549073ffffffffffffffffffffffffffffffffffffffff02191690556001820160009055600282016000905550600301610668565b5090565b905600a165627a7a7230582063d223e9d22ff11aa3271007b4efb49d2d0e1dfc0f227d130020fc1f8ed497c50029",
  "source": "\npragma solidity ^0.4.11;\n\ncontract MiningEquityDistributorV2 {\n  //Owner\n  struct Owner {\n    address addr;\n    uint ownershipFactor;\n    uint currentBalance;\n  }\n\n  Owner[] owners;\n\n  bool withdrawLock;\n\n  function MiningOperation(address[] newOwners, uint[] ownershipFactor) public {\n    for (uint i = 0; i < newOwners.length; i++)\n      owners.push(\n                  Owner(newOwners[i],\n                        ownershipFactor[i],\n                        0)\n                  );\n  }\n\n\n  function withdrawContractBalance() public payable {\n    require(isOwner());\n    require(withdrawLock);\n    withdrawLock = false;\n    uint availableFunds = contractAvailableFunds();\n    for (uint i = 0; i < owners.length; i++){\n      uint amountToTransfer = owners[i].currentBalance;\n      amountToTransfer += availableFunds / owners[i].ownershipFactor;\n      owners[i].currentBalance = 0;\n      owners[i].addr.transfer(amountToTransfer);\n    }\n    withdrawLock = true;\n  }\n\n  function reportExpense(uint expenseAmount) public {\n    require(isOwner());\n    require(expenseAmount <= contractAvailableFunds());\n    for (uint i = 0; i < owners.length; i++){\n      if (owners[i].addr == msg.sender) {\n        owners[i].currentBalance += expenseAmount;\n      }\n    }\n  }\n\n  function isOwner() private view returns (bool) {\n    for (uint i = 0; i < owners.length; i++)\n      if (owners[i].addr == msg.sender)\n        return true;\n    return false;\n  }\n\n  function contractAvailableFunds() private view returns (uint) {\n    uint availableBalance = this.balance;\n    for (uint i = 0; i < owners.length; i++)\n      if (owners[i].addr == msg.sender)\n        availableBalance -= owners[i].currentBalance;\n    return availableBalance;\n  }\n\n  function() public payable { }\n\n  /* function terminateContract() public { */\n  /*   require(msg.sender == juan || msg.sender == rafael); */\n  /*   selfdestruct(juan); */\n  /* } */\n}\n",
  "sourcePath": "/Users/rafael/sandboxes/solidity/mining_contract/contracts/MiningEquityDistributorV2.sol",
  "compiler": {
    "name": "solc",
    "version": "0.4.18+commit.9cf6e910.Emscripten.clang"
  },
  "schemaVersion": "1.0.1",
  "updatedAt": "2017-11-30T03:48:22.297Z"
}